{
  "address": "0xc8D19Fec718100945914cF4d71B40e0d39590f4F",
  "abi": [
    {
      "inputs": [
        {
          "internalType": "uint64",
          "name": "_subscriptionId",
          "type": "uint64"
        },
        {
          "internalType": "bytes32",
          "name": "gasLane",
          "type": "bytes32"
        },
        {
          "internalType": "uint32",
          "name": "callbackGasLimit",
          "type": "uint32"
        }
      ],
      "stateMutability": "payable",
      "type": "constructor"
    },
    {
      "inputs": [],
      "name": "Lottery__NotEnoughPlayers",
      "type": "error"
    },
    {
      "inputs": [],
      "name": "Lottery__NotOwner",
      "type": "error"
    },
    {
      "inputs": [],
      "name": "Lottery__TransferFailed",
      "type": "error"
    },
    {
      "inputs": [
        {
          "internalType": "address",
          "name": "have",
          "type": "address"
        },
        {
          "internalType": "address",
          "name": "want",
          "type": "address"
        }
      ],
      "name": "OnlyCoordinatorCanFulfill",
      "type": "error"
    },
    {
      "anonymous": false,
      "inputs": [
        {
          "indexed": false,
          "internalType": "address payable[]",
          "name": "addresses",
          "type": "address[]"
        }
      ],
      "name": "AddressesAdded",
      "type": "event"
    },
    {
      "anonymous": false,
      "inputs": [
        {
          "indexed": true,
          "internalType": "uint256",
          "name": "requestId",
          "type": "uint256"
        }
      ],
      "name": "RequestedRaffleWinner",
      "type": "event"
    },
    {
      "anonymous": false,
      "inputs": [
        {
          "indexed": true,
          "internalType": "address",
          "name": "recentWinner",
          "type": "address"
        }
      ],
      "name": "WinnerPicked",
      "type": "event"
    },
    {
      "inputs": [],
      "name": "addConsumer",
      "outputs": [],
      "stateMutability": "nonpayable",
      "type": "function"
    },
    {
      "inputs": [],
      "name": "getLotteryStake",
      "outputs": [
        {
          "internalType": "uint256",
          "name": "",
          "type": "uint256"
        }
      ],
      "stateMutability": "view",
      "type": "function"
    },
    {
      "inputs": [],
      "name": "getNumWords",
      "outputs": [
        {
          "internalType": "uint256",
          "name": "",
          "type": "uint256"
        }
      ],
      "stateMutability": "pure",
      "type": "function"
    },
    {
      "inputs": [],
      "name": "getNumberOfPlayers",
      "outputs": [
        {
          "internalType": "uint256",
          "name": "",
          "type": "uint256"
        }
      ],
      "stateMutability": "view",
      "type": "function"
    },
    {
      "inputs": [],
      "name": "getParticipants",
      "outputs": [
        {
          "internalType": "address payable[]",
          "name": "",
          "type": "address[]"
        }
      ],
      "stateMutability": "view",
      "type": "function"
    },
    {
      "inputs": [],
      "name": "getRecentWinner",
      "outputs": [
        {
          "internalType": "address",
          "name": "",
          "type": "address"
        }
      ],
      "stateMutability": "view",
      "type": "function"
    },
    {
      "inputs": [],
      "name": "getRequestConfirmations",
      "outputs": [
        {
          "internalType": "uint256",
          "name": "",
          "type": "uint256"
        }
      ],
      "stateMutability": "pure",
      "type": "function"
    },
    {
      "inputs": [],
      "name": "getSubscriptionId",
      "outputs": [
        {
          "internalType": "uint256",
          "name": "",
          "type": "uint256"
        }
      ],
      "stateMutability": "view",
      "type": "function"
    },
    {
      "inputs": [
        {
          "internalType": "uint256",
          "name": "requestId",
          "type": "uint256"
        },
        {
          "internalType": "uint256[]",
          "name": "randomWords",
          "type": "uint256[]"
        }
      ],
      "name": "rawFulfillRandomWords",
      "outputs": [],
      "stateMutability": "nonpayable",
      "type": "function"
    },
    {
      "inputs": [],
      "name": "requestRandomWords",
      "outputs": [],
      "stateMutability": "nonpayable",
      "type": "function"
    },
    {
      "inputs": [
        {
          "internalType": "address payable[]",
          "name": "_addresses",
          "type": "address[]"
        }
      ],
      "name": "setAddresses",
      "outputs": [],
      "stateMutability": "nonpayable",
      "type": "function"
    }
  ],
  "transactionHash": "0x6afa8c0e60e9fc0d6c23634ef6e8ca4bb1372124853ac0fb234be8ae7a9eef6d",
  "args": [
    "2686",
    "0x4b09e658ed251bcafeebbc69400383d49f344ace09b9576fe248bb02c003fe9f",
    "2500000"
  ],
  "numDeployments": 16,
  "solcInputHash": "304655256cb0d2fe8cc2952ca54f5287",
  "bytecode": "0x6101206040526040516200142f3803806200142f83398181016040528101906200002a919062000214565b737a1bac17ccc5b313516c5e16fb24f7659aa5ebed60016000819055508073ffffffffffffffffffffffffffffffffffffffff1660808173ffffffffffffffffffffffffffffffffffffffff1681525050503373ffffffffffffffffffffffffffffffffffffffff1660a08173ffffffffffffffffffffffffffffffffffffffff1681525050737a1bac17ccc5b313516c5e16fb24f7659aa5ebed73ffffffffffffffffffffffffffffffffffffffff1660c08173ffffffffffffffffffffffffffffffffffffffff168152505082600460006101000a81548167ffffffffffffffff021916908367ffffffffffffffff1602179055508160e081815250508063ffffffff166101008163ffffffff16815250503460038190555050505062000270565b600080fd5b600067ffffffffffffffff82169050919050565b620001728162000153565b81146200017e57600080fd5b50565b600081519050620001928162000167565b92915050565b6000819050919050565b620001ad8162000198565b8114620001b957600080fd5b50565b600081519050620001cd81620001a2565b92915050565b600063ffffffff82169050919050565b620001ee81620001d3565b8114620001fa57600080fd5b50565b6000815190506200020e81620001e3565b92915050565b60008060006060848603121562000230576200022f6200014e565b5b6000620002408682870162000181565b93505060206200025386828701620001bc565b92505060406200026686828701620001fd565b9150509250925092565b60805160a05160c05160e05161010051611165620002ca600039600061064b0152600061061101526000818161036c01526105d5015260008181610411015261054e0152600081816101ce015261022201526111656000f3fe608060405234801561001057600080fd5b50600436106100a95760003560e01c80636399c480116100715780636399c480146101425780637e4aa3c614610160578063b95717211461016a578063de3d9fb714610186578063e0c86289146101a4578063fd6673f5146101ae576100a9565b80631fe543e3146100ae578063473f1ddc146100ca57806353a2c19a146100e85780635aa68ac0146101065780635f1b0fd814610124575b600080fd5b6100c860048036038101906100c39190610b72565b6101cc565b005b6100d261028c565b6040516100df9190610c0f565b60405180910390f35b6100f06102b6565b6040516100fd9190610c39565b60405180910390f35b61010e6102c5565b60405161011b9190610d24565b60405180910390f35b61012c610353565b6040516101399190610c39565b60405180910390f35b61014a610360565b6040516101579190610c39565b60405180910390f35b61016861036a565b005b610184600480360381019061017f9190610e35565b61040f565b005b61018e6104e5565b60405161019b9190610c39565b60405180910390f35b6101ac61050d565b005b6101b6610710565b6040516101c39190610c39565b60405180910390f35b7f000000000000000000000000000000000000000000000000000000000000000073ffffffffffffffffffffffffffffffffffffffff163373ffffffffffffffffffffffffffffffffffffffff161461027e57337f00000000000000000000000000000000000000000000000000000000000000006040517f1cf993f4000000000000000000000000000000000000000000000000000000008152600401610275929190610e7e565b60405180910390fd5b610288828261071d565b5050565b6000600260009054906101000a900473ffffffffffffffffffffffffffffffffffffffff16905090565b6000600163ffffffff16905090565b6060600180548060200260200160405190810160405280929190818152602001828054801561034957602002820191906000526020600020905b8160009054906101000a900473ffffffffffffffffffffffffffffffffffffffff1673ffffffffffffffffffffffffffffffffffffffff16815260200190600101908083116102ff575b5050505050905090565b6000600361ffff16905090565b6000600354905090565b7f000000000000000000000000000000000000000000000000000000000000000073ffffffffffffffffffffffffffffffffffffffff16637341c10c600460009054906101000a900467ffffffffffffffff16306040518363ffffffff1660e01b81526004016103db929190610eca565b600060405180830381600087803b1580156103f557600080fd5b505af1158015610409573d6000803e3d6000fd5b50505050565b7f000000000000000000000000000000000000000000000000000000000000000073ffffffffffffffffffffffffffffffffffffffff163373ffffffffffffffffffffffffffffffffffffffff1614610494576040517fac588c4600000000000000000000000000000000000000000000000000000000815260040160405180910390fd5b80600190805190602001906104aa929190610928565b507fa3aa5aa3df32e732d8928583aa51a9477a8b8749e51399fe58b100ac870a44f2816040516104da9190610d24565b60405180910390a150565b6000600460009054906101000a900467ffffffffffffffff1667ffffffffffffffff16905090565b60006001805490501161054c576040517f5a77e4b400000000000000000000000000000000000000000000000000000000815260040160405180910390fd5b7f000000000000000000000000000000000000000000000000000000000000000073ffffffffffffffffffffffffffffffffffffffff163373ffffffffffffffffffffffffffffffffffffffff16146105d1576040517fac588c4600000000000000000000000000000000000000000000000000000000815260040160405180910390fd5b60007f000000000000000000000000000000000000000000000000000000000000000073ffffffffffffffffffffffffffffffffffffffff16635d3b1d307f0000000000000000000000000000000000000000000000000000000000000000600460009054906101000a900467ffffffffffffffff1660037f000000000000000000000000000000000000000000000000000000000000000060016040518663ffffffff1660e01b815260040161068c959493929190610f48565b602060405180830381600087803b1580156106a657600080fd5b505af11580156106ba573d6000803e3d6000fd5b505050506040513d601f19601f820116820180604052508101906106de9190610fb0565b9050807fcd6e45c8998311cab7e9d4385596cac867e20a0587194b954fa3a731c93ce78b60405160405180910390a250565b6000600180549050905090565b6107256108ce565b60006001805490508260008151811061074157610740610fdd565b5b6020026020010151610753919061103b565b905060006001828154811061076b5761076a610fdd565b5b9060005260206000200160009054906101000a900473ffffffffffffffffffffffffffffffffffffffff16905080600260006101000a81548173ffffffffffffffffffffffffffffffffffffffff021916908373ffffffffffffffffffffffffffffffffffffffff16021790555060008173ffffffffffffffffffffffffffffffffffffffff16476040516107ff9061109d565b60006040518083038185875af1925050503d806000811461083c576040519150601f19603f3d011682016040523d82523d6000602084013e610841565b606091505b505090508061087c576040517f1c94012000000000000000000000000000000000000000000000000000000000815260040160405180910390fd5b8173ffffffffffffffffffffffffffffffffffffffff167f5b690ec4a06fe979403046eaeea5b3ce38524683c3001f662c8b5a829632f7df60405160405180910390a25050506108ca61091e565b5050565b60026000541415610914576040517f08c379a000000000000000000000000000000000000000000000000000000000815260040161090b9061110f565b60405180910390fd5b6002600081905550565b6001600081905550565b8280548282559060005260206000209081019282156109a1579160200282015b828111156109a05782518260006101000a81548173ffffffffffffffffffffffffffffffffffffffff021916908373ffffffffffffffffffffffffffffffffffffffff16021790555091602001919060010190610948565b5b5090506109ae91906109b2565b5090565b5b808211156109cb5760008160009055506001016109b3565b5090565b6000604051905090565b600080fd5b600080fd5b6000819050919050565b6109f6816109e3565b8114610a0157600080fd5b50565b600081359050610a13816109ed565b92915050565b600080fd5b6000601f19601f8301169050919050565b7f4e487b7100000000000000000000000000000000000000000000000000000000600052604160045260246000fd5b610a6782610a1e565b810181811067ffffffffffffffff82111715610a8657610a85610a2f565b5b80604052505050565b6000610a996109cf565b9050610aa58282610a5e565b919050565b600067ffffffffffffffff821115610ac557610ac4610a2f565b5b602082029050602081019050919050565b600080fd5b6000610aee610ae984610aaa565b610a8f565b90508083825260208201905060208402830185811115610b1157610b10610ad6565b5b835b81811015610b3a5780610b268882610a04565b845260208401935050602081019050610b13565b5050509392505050565b600082601f830112610b5957610b58610a19565b5b8135610b69848260208601610adb565b91505092915050565b60008060408385031215610b8957610b886109d9565b5b6000610b9785828601610a04565b925050602083013567ffffffffffffffff811115610bb857610bb76109de565b5b610bc485828601610b44565b9150509250929050565b600073ffffffffffffffffffffffffffffffffffffffff82169050919050565b6000610bf982610bce565b9050919050565b610c0981610bee565b82525050565b6000602082019050610c246000830184610c00565b92915050565b610c33816109e3565b82525050565b6000602082019050610c4e6000830184610c2a565b92915050565b600081519050919050565b600082825260208201905092915050565b6000819050602082019050919050565b6000610c8b82610bce565b9050919050565b610c9b81610c80565b82525050565b6000610cad8383610c92565b60208301905092915050565b6000602082019050919050565b6000610cd182610c54565b610cdb8185610c5f565b9350610ce683610c70565b8060005b83811015610d17578151610cfe8882610ca1565b9750610d0983610cb9565b925050600181019050610cea565b5085935050505092915050565b60006020820190508181036000830152610d3e8184610cc6565b905092915050565b600067ffffffffffffffff821115610d6157610d60610a2f565b5b602082029050602081019050919050565b610d7b81610c80565b8114610d8657600080fd5b50565b600081359050610d9881610d72565b92915050565b6000610db1610dac84610d46565b610a8f565b90508083825260208201905060208402830185811115610dd457610dd3610ad6565b5b835b81811015610dfd5780610de98882610d89565b845260208401935050602081019050610dd6565b5050509392505050565b600082601f830112610e1c57610e1b610a19565b5b8135610e2c848260208601610d9e565b91505092915050565b600060208284031215610e4b57610e4a6109d9565b5b600082013567ffffffffffffffff811115610e6957610e686109de565b5b610e7584828501610e07565b91505092915050565b6000604082019050610e936000830185610c00565b610ea06020830184610c00565b9392505050565b600067ffffffffffffffff82169050919050565b610ec481610ea7565b82525050565b6000604082019050610edf6000830185610ebb565b610eec6020830184610c00565b9392505050565b6000819050919050565b610f0681610ef3565b82525050565b600061ffff82169050919050565b610f2381610f0c565b82525050565b600063ffffffff82169050919050565b610f4281610f29565b82525050565b600060a082019050610f5d6000830188610efd565b610f6a6020830187610ebb565b610f776040830186610f1a565b610f846060830185610f39565b610f916080830184610f39565b9695505050505050565b600081519050610faa816109ed565b92915050565b600060208284031215610fc657610fc56109d9565b5b6000610fd484828501610f9b565b91505092915050565b7f4e487b7100000000000000000000000000000000000000000000000000000000600052603260045260246000fd5b7f4e487b7100000000000000000000000000000000000000000000000000000000600052601260045260246000fd5b6000611046826109e3565b9150611051836109e3565b9250826110615761106061100c565b5b828206905092915050565b600081905092915050565b50565b600061108760008361106c565b915061109282611077565b600082019050919050565b60006110a88261107a565b9150819050919050565b600082825260208201905092915050565b7f5265656e7472616e637947756172643a207265656e7472616e742063616c6c00600082015250565b60006110f9601f836110b2565b9150611104826110c3565b602082019050919050565b60006020820190508181036000830152611128816110ec565b905091905056fea2646970667358221220171a68599be5a162ef735501e2a159010c7249ff642ad20a65d7709a97f94a3264736f6c63430008090033",
  "devdoc": {
    "kind": "dev",
    "methods": {},
    "version": 1
  },
  "userdoc": {
    "kind": "user",
    "methods": {},
    "version": 1
  },
  "storageLayout": {
    "storage": [
      {
        "astId": 183,
        "contract": "contracts/LotteryOneWinner.sol:LotteryOneWinner",
        "label": "_status",
        "offset": 0,
        "slot": "0",
        "type": "t_uint256"
      },
      {
        "astId": 246,
        "contract": "contracts/LotteryOneWinner.sol:LotteryOneWinner",
        "label": "participants",
        "offset": 0,
        "slot": "1",
        "type": "t_array(t_address_payable)dyn_storage"
      },
      {
        "astId": 250,
        "contract": "contracts/LotteryOneWinner.sol:LotteryOneWinner",
        "label": "s_winner",
        "offset": 0,
        "slot": "2",
        "type": "t_address"
      },
      {
        "astId": 252,
        "contract": "contracts/LotteryOneWinner.sol:LotteryOneWinner",
        "label": "lotteryStake",
        "offset": 0,
        "slot": "3",
        "type": "t_uint256"
      },
      {
        "astId": 257,
        "contract": "contracts/LotteryOneWinner.sol:LotteryOneWinner",
        "label": "subscriptionId",
        "offset": 0,
        "slot": "4",
        "type": "t_uint64"
      }
    ],
    "types": {
      "t_address": {
        "encoding": "inplace",
        "label": "address",
        "numberOfBytes": "20"
      },
      "t_address_payable": {
        "encoding": "inplace",
        "label": "address payable",
        "numberOfBytes": "20"
      },
      "t_array(t_address_payable)dyn_storage": {
        "base": "t_address_payable",
        "encoding": "dynamic_array",
        "label": "address payable[]",
        "numberOfBytes": "32"
      },
      "t_uint256": {
        "encoding": "inplace",
        "label": "uint256",
        "numberOfBytes": "32"
      },
      "t_uint64": {
        "encoding": "inplace",
        "label": "uint64",
        "numberOfBytes": "8"
      }
    }
  }
}