{
  "address": "0x44D646f5A672Afc31273aF3DCF1fF9DC00D70d02",
  "abi": [
    {
      "inputs": [
        {
          "internalType": "uint64",
          "name": "_subscriptionId",
          "type": "uint64"
        },
        {
          "internalType": "bytes32",
          "name": "_gasLane",
          "type": "bytes32"
        },
        {
          "internalType": "uint32",
          "name": "_callbackGasLimit",
          "type": "uint32"
        }
      ],
      "stateMutability": "payable",
      "type": "constructor"
    },
    {
      "inputs": [],
      "name": "Lottery__LotteryAlreadyExists",
      "type": "error"
    },
    {
      "inputs": [],
      "name": "Lottery__LotteryClosed",
      "type": "error"
    },
    {
      "inputs": [],
      "name": "Lottery__LotteryDoesNotExist",
      "type": "error"
    },
    {
      "inputs": [],
      "name": "Lottery__NotEnoughFundsSent",
      "type": "error"
    },
    {
      "inputs": [],
      "name": "Lottery__NotEnoughPlayers",
      "type": "error"
    },
    {
      "inputs": [],
      "name": "Lottery__NotEnoughWinners",
      "type": "error"
    },
    {
      "inputs": [],
      "name": "Lottery__NumOfPlayersNotEqualToNumOfRewards",
      "type": "error"
    },
    {
      "inputs": [],
      "name": "Lottery__RandomNumberAlreadyPicked",
      "type": "error"
    },
    {
      "inputs": [],
      "name": "Lottery__RandomNumberNotPicked",
      "type": "error"
    },
    {
      "inputs": [],
      "name": "Lottery__RewardEqualToZero",
      "type": "error"
    },
    {
      "inputs": [],
      "name": "Lottery__RewardProportionsError",
      "type": "error"
    },
    {
      "inputs": [],
      "name": "Lottery__TransferFailed",
      "type": "error"
    },
    {
      "inputs": [],
      "name": "Lottery__WinnerAlreadyPicked",
      "type": "error"
    },
    {
      "inputs": [
        {
          "internalType": "address",
          "name": "have",
          "type": "address"
        },
        {
          "internalType": "address",
          "name": "want",
          "type": "address"
        }
      ],
      "name": "OnlyCoordinatorCanFulfill",
      "type": "error"
    },
    {
      "anonymous": false,
      "inputs": [
        {
          "indexed": true,
          "internalType": "uint256",
          "name": "lotteryId",
          "type": "uint256"
        },
        {
          "indexed": false,
          "internalType": "address payable[]",
          "name": "addresses",
          "type": "address[]"
        }
      ],
      "name": "AddressesAdded",
      "type": "event"
    },
    {
      "anonymous": false,
      "inputs": [
        {
          "indexed": true,
          "internalType": "uint256",
          "name": "lotteryId",
          "type": "uint256"
        },
        {
          "indexed": false,
          "internalType": "uint256",
          "name": "randomNumber",
          "type": "uint256"
        }
      ],
      "name": "RandomNumberPicked",
      "type": "event"
    },
    {
      "anonymous": false,
      "inputs": [
        {
          "indexed": true,
          "internalType": "uint256",
          "name": "requestId",
          "type": "uint256"
        }
      ],
      "name": "RequestedRaffleWinner",
      "type": "event"
    },
    {
      "inputs": [
        {
          "internalType": "uint256",
          "name": "_lotteryId",
          "type": "uint256"
        },
        {
          "internalType": "address payable[]",
          "name": "_addresses",
          "type": "address[]"
        }
      ],
      "name": "addLotteryParticipants",
      "outputs": [],
      "stateMutability": "nonpayable",
      "type": "function"
    },
    {
      "inputs": [
        {
          "internalType": "uint256",
          "name": "_lotteryId",
          "type": "uint256"
        }
      ],
      "name": "checkIfLotteryExists",
      "outputs": [
        {
          "internalType": "bool",
          "name": "",
          "type": "bool"
        }
      ],
      "stateMutability": "view",
      "type": "function"
    },
    {
      "inputs": [
        {
          "internalType": "uint256",
          "name": "_lotteryId",
          "type": "uint256"
        }
      ],
      "name": "emergencyCashback",
      "outputs": [],
      "stateMutability": "nonpayable",
      "type": "function"
    },
    {
      "inputs": [
        {
          "internalType": "uint256",
          "name": "_lotteryId",
          "type": "uint256"
        }
      ],
      "name": "getFinalRewards",
      "outputs": [
        {
          "internalType": "uint256[]",
          "name": "",
          "type": "uint256[]"
        }
      ],
      "stateMutability": "view",
      "type": "function"
    },
    {
      "inputs": [
        {
          "internalType": "uint256",
          "name": "_lotteryId",
          "type": "uint256"
        }
      ],
      "name": "getLotteryAuthor",
      "outputs": [
        {
          "internalType": "address payable",
          "name": "",
          "type": "address"
        }
      ],
      "stateMutability": "view",
      "type": "function"
    },
    {
      "inputs": [],
      "name": "getLotteryId",
      "outputs": [
        {
          "internalType": "uint256",
          "name": "",
          "type": "uint256"
        }
      ],
      "stateMutability": "view",
      "type": "function"
    },
    {
      "inputs": [
        {
          "internalType": "uint256",
          "name": "_lotteryId",
          "type": "uint256"
        }
      ],
      "name": "getLotteryInfo",
      "outputs": [
        {
          "components": [
            {
              "internalType": "bool",
              "name": "exists",
              "type": "bool"
            },
            {
              "internalType": "address payable",
              "name": "author",
              "type": "address"
            },
            {
              "internalType": "enum Raffle.LotteryState",
              "name": "status",
              "type": "uint8"
            },
            {
              "internalType": "uint256",
              "name": "reward",
              "type": "uint256"
            },
            {
              "internalType": "uint256",
              "name": "numOfWinners",
              "type": "uint256"
            },
            {
              "internalType": "uint256[]",
              "name": "rewardProportions",
              "type": "uint256[]"
            },
            {
              "internalType": "uint256[]",
              "name": "finalRewards",
              "type": "uint256[]"
            },
            {
              "internalType": "address payable[]",
              "name": "participants",
              "type": "address[]"
            },
            {
              "internalType": "address payable[]",
              "name": "winners",
              "type": "address[]"
            }
          ],
          "internalType": "struct Raffle.Lottery",
          "name": "",
          "type": "tuple"
        }
      ],
      "stateMutability": "view",
      "type": "function"
    },
    {
      "inputs": [
        {
          "internalType": "uint256",
          "name": "_lotteryId",
          "type": "uint256"
        }
      ],
      "name": "getLotteryPrize",
      "outputs": [
        {
          "internalType": "uint256",
          "name": "",
          "type": "uint256"
        }
      ],
      "stateMutability": "view",
      "type": "function"
    },
    {
      "inputs": [
        {
          "internalType": "uint256",
          "name": "_lotteryId",
          "type": "uint256"
        }
      ],
      "name": "getLotteryState",
      "outputs": [
        {
          "internalType": "enum Raffle.LotteryState",
          "name": "",
          "type": "uint8"
        }
      ],
      "stateMutability": "view",
      "type": "function"
    },
    {
      "inputs": [],
      "name": "getNumWords",
      "outputs": [
        {
          "internalType": "uint256",
          "name": "",
          "type": "uint256"
        }
      ],
      "stateMutability": "pure",
      "type": "function"
    },
    {
      "inputs": [
        {
          "internalType": "uint256",
          "name": "_lotteryId",
          "type": "uint256"
        }
      ],
      "name": "getNumberOfPlayers",
      "outputs": [
        {
          "internalType": "uint256",
          "name": "",
          "type": "uint256"
        }
      ],
      "stateMutability": "view",
      "type": "function"
    },
    {
      "inputs": [
        {
          "internalType": "uint256",
          "name": "_lotteryId",
          "type": "uint256"
        }
      ],
      "name": "getNumberOfWinners",
      "outputs": [
        {
          "internalType": "uint256",
          "name": "",
          "type": "uint256"
        }
      ],
      "stateMutability": "view",
      "type": "function"
    },
    {
      "inputs": [
        {
          "internalType": "uint256",
          "name": "_lotteryId",
          "type": "uint256"
        }
      ],
      "name": "getParticipants",
      "outputs": [
        {
          "internalType": "address payable[]",
          "name": "",
          "type": "address[]"
        }
      ],
      "stateMutability": "view",
      "type": "function"
    },
    {
      "inputs": [
        {
          "internalType": "uint256",
          "name": "_lotteryId",
          "type": "uint256"
        }
      ],
      "name": "getRandomNumber",
      "outputs": [
        {
          "internalType": "uint256",
          "name": "",
          "type": "uint256"
        }
      ],
      "stateMutability": "view",
      "type": "function"
    },
    {
      "inputs": [],
      "name": "getRequestConfirmations",
      "outputs": [
        {
          "internalType": "uint256",
          "name": "",
          "type": "uint256"
        }
      ],
      "stateMutability": "pure",
      "type": "function"
    },
    {
      "inputs": [
        {
          "internalType": "uint256",
          "name": "_lotteryId",
          "type": "uint256"
        }
      ],
      "name": "getRewardProportions",
      "outputs": [
        {
          "internalType": "uint256[]",
          "name": "",
          "type": "uint256[]"
        }
      ],
      "stateMutability": "view",
      "type": "function"
    },
    {
      "inputs": [],
      "name": "getSubscriptionId",
      "outputs": [
        {
          "internalType": "uint256",
          "name": "",
          "type": "uint256"
        }
      ],
      "stateMutability": "view",
      "type": "function"
    },
    {
      "inputs": [
        {
          "internalType": "uint256",
          "name": "_lotteryId",
          "type": "uint256"
        }
      ],
      "name": "getWinnersOfLottery",
      "outputs": [
        {
          "internalType": "address payable[]",
          "name": "",
          "type": "address[]"
        }
      ],
      "stateMutability": "view",
      "type": "function"
    },
    {
      "inputs": [
        {
          "internalType": "address payable",
          "name": "_author",
          "type": "address"
        },
        {
          "internalType": "uint256",
          "name": "_numOfWinners",
          "type": "uint256"
        },
        {
          "internalType": "uint256[]",
          "name": "_rewardProportions",
          "type": "uint256[]"
        }
      ],
      "name": "openLottery",
      "outputs": [],
      "stateMutability": "payable",
      "type": "function"
    },
    {
      "inputs": [
        {
          "internalType": "uint256",
          "name": "_lotteryId",
          "type": "uint256"
        }
      ],
      "name": "payoutWinners",
      "outputs": [],
      "stateMutability": "nonpayable",
      "type": "function"
    },
    {
      "inputs": [
        {
          "internalType": "uint256",
          "name": "_lotteryId",
          "type": "uint256"
        }
      ],
      "name": "pickRandomNumberForLottery",
      "outputs": [],
      "stateMutability": "nonpayable",
      "type": "function"
    },
    {
      "inputs": [
        {
          "internalType": "uint256",
          "name": "requestId",
          "type": "uint256"
        },
        {
          "internalType": "uint256[]",
          "name": "randomWords",
          "type": "uint256[]"
        }
      ],
      "name": "rawFulfillRandomWords",
      "outputs": [],
      "stateMutability": "nonpayable",
      "type": "function"
    }
  ],
  "transactionHash": "0xffc85b95ae68e1a731b3fad2d9a9b45594d4088b532c75d242c4b2ea351f2851",
  "args": [
    "2679",
    "0x4b09e658ed251bcafeebbc69400383d49f344ace09b9576fe248bb02c003fe9f",
    "2500000"
  ],
  "numDeployments": 1,
  "solcInputHash": "6790e31a8407b7fb71878f5cdc7122c7",
  "bytecode": "0x610140604052604051620031763803806200317683398181016040528101906200002a919062000209565b737a1bac17ccc5b313516c5e16fb24f7659aa5ebed60016000819055508073ffffffffffffffffffffffffffffffffffffffff1660808173ffffffffffffffffffffffffffffffffffffffff1681525050503373ffffffffffffffffffffffffffffffffffffffff1660a08173ffffffffffffffffffffffffffffffffffffffff1681525050737a1bac17ccc5b313516c5e16fb24f7659aa5ebed73ffffffffffffffffffffffffffffffffffffffff1660c08173ffffffffffffffffffffffffffffffffffffffff16815250508267ffffffffffffffff1660e08167ffffffffffffffff16815250508161010081815250508063ffffffff166101208163ffffffff1681525050600060048190555050505062000265565b600080fd5b600067ffffffffffffffff82169050919050565b620001678162000148565b81146200017357600080fd5b50565b60008151905062000187816200015c565b92915050565b6000819050919050565b620001a2816200018d565b8114620001ae57600080fd5b50565b600081519050620001c28162000197565b92915050565b600063ffffffff82169050919050565b620001e381620001c8565b8114620001ef57600080fd5b50565b6000815190506200020381620001d8565b92915050565b60008060006060848603121562000225576200022462000143565b5b6000620002358682870162000176565b93505060206200024886828701620001b1565b92505060406200025b86828701620001f2565b9150509250925092565b60805160a05160c05160e0516101005161012051612e97620002df6000396000610c1501526000610bd1015260008181610bf20152611cad01526000610b9501526000818161071a015281816108bf0152818161106b015281816117810152611cdd0152600081816105cd01526106210152612e976000f3fe6080604052600436106101355760003560e01c806376b3c8a8116100ab578063b37217a41161006f578063b37217a414610463578063c1e3bd3e146104a0578063cd754565146104dd578063d366b2f91461051a578063de3d9fb714610557578063fe2eb8bc1461058257610135565b806376b3c8a81461037957806383d00890146103b6578063900aafaf146103df578063a3006ecb1461040a578063aeb250f31461044757610135565b80634bfdf87b116100fd5780634bfdf87b1461025757806353a2c19a14610280578063554555e0146102ab5780635f1b0fd8146102d457806362436d9d146102ff578063736cd1591461033c57610135565b80631923f7fe1461013a5780631fe543e31461017757806332bc3f3a146101a057806332c0ea11146101dd5780633bac983d1461021a575b600080fd5b34801561014657600080fd5b50610161600480360381019061015c9190612123565b6105ab565b60405161016e919061215f565b60405180910390f35b34801561018357600080fd5b5061019e600480360381019061019991906122d3565b6105cb565b005b3480156101ac57600080fd5b506101c760048036038101906101c29190612123565b61068b565b6040516101d49190612370565b60405180910390f35b3480156101e957600080fd5b5061020460048036038101906101ff9190612123565b6106cb565b60405161021191906123a6565b60405180910390f35b34801561022657600080fd5b50610241600480360381019061023c9190612123565b6106f8565b60405161024e919061215f565b60405180910390f35b34801561026357600080fd5b5061027e60048036038101906102799190612123565b610718565b005b34801561028c57600080fd5b506102956108ae565b6040516102a2919061215f565b60405180910390f35b3480156102b757600080fd5b506102d260048036038101906102cd9190612123565b6108bd565b005b3480156102e057600080fd5b506102e9610cdb565b6040516102f6919061215f565b60405180910390f35b34801561030b57600080fd5b5061032660048036038101906103219190612123565b610ce8565b604051610333919061215f565b60405180910390f35b34801561034857600080fd5b50610363600480360381019061035e9190612123565b610d0b565b604051610370919061247f565b60405180910390f35b34801561038557600080fd5b506103a0600480360381019061039b9190612123565b610daf565b6040516103ad919061272e565b60405180910390f35b3480156103c257600080fd5b506103dd60048036038101906103d89190612123565b611069565b005b3480156103eb57600080fd5b506103f4611707565b604051610401919061215f565b60405180910390f35b34801561041657600080fd5b50610431600480360381019061042c9190612123565b611711565b60405161043e91906127bf565b60405180910390f35b610461600480360381019061045c919061280d565b61177f565b005b34801561046f57600080fd5b5061048a60048036038101906104859190612123565b611b4d565b604051610497919061215f565b60405180910390f35b3480156104ac57600080fd5b506104c760048036038101906104c29190612123565b611b6a565b6040516104d4919061247f565b60405180910390f35b3480156104e957600080fd5b5061050460048036038101906104ff9190612123565b611c0e565b60405161051191906127bf565b60405180910390f35b34801561052657600080fd5b50610541600480360381019061053c9190612123565b611c7c565b60405161054e919061288b565b60405180910390f35b34801561056357600080fd5b5061056c611ca9565b604051610579919061215f565b60405180910390f35b34801561058e57600080fd5b506105a960048036038101906105a49190612969565b611cdb565b005b600060056000838152602001908152602001600020600101549050919050565b7f000000000000000000000000000000000000000000000000000000000000000073ffffffffffffffffffffffffffffffffffffffff163373ffffffffffffffffffffffffffffffffffffffff161461067d57337f00000000000000000000000000000000000000000000000000000000000000006040517f1cf993f40000000000000000000000000000000000000000000000000000000081526004016106749291906129e6565b60405180910390fd5b6106878282611f01565b5050565b60006005600083815260200190815260200160002060000160019054906101000a900473ffffffffffffffffffffffffffffffffffffffff169050919050565b60006005600083815260200190815260200160002060000160009054906101000a900460ff169050919050565b600060056000838152602001908152602001600020600201549050919050565b7f000000000000000000000000000000000000000000000000000000000000000073ffffffffffffffffffffffffffffffffffffffff163373ffffffffffffffffffffffffffffffffffffffff161461077057600080fd5b60006005600083815260200190815260200160002060000160019054906101000a900473ffffffffffffffffffffffffffffffffffffffff16905060006005600084815260200190815260200160002060010154905060006005600085815260200190815260200160002060000160156101000a81548160ff02191690836001811115610800576107ff6124b0565b5b021790555060008273ffffffffffffffffffffffffffffffffffffffff168260405161082b90612a40565b60006040518083038185875af1925050503d8060008114610868576040519150601f19603f3d011682016040523d82523d6000602084013e61086d565b606091505b50509050806108a8576040517f1c94012000000000000000000000000000000000000000000000000000000000815260040160405180910390fd5b50505050565b6000600163ffffffff16905090565b7f000000000000000000000000000000000000000000000000000000000000000073ffffffffffffffffffffffffffffffffffffffff163373ffffffffffffffffffffffffffffffffffffffff161461091557600080fd5b6000600560008381526020019081526020016000206005018054905011610968576040517f5a77e4b400000000000000000000000000000000000000000000000000000000815260040160405180910390fd5b60018081111561097b5761097a6124b0565b5b6005600083815260200190815260200160002060000160159054906101000a900460ff1660018111156109b1576109b06124b0565b5b146109e8576040517f3066e5b200000000000000000000000000000000000000000000000000000000815260040160405180910390fd5b6000600560008381526020019081526020016000206001015411610a38576040517f761f6f4900000000000000000000000000000000000000000000000000000000815260040160405180910390fd5b6000600560008381526020019081526020016000206002015411610a88576040517f08d4c51400000000000000000000000000000000000000000000000000000000815260040160405180910390fd5b6005600082815260200190815260200160002060020154600560008381526020019081526020016000206003018054905014610af0576040517f5b78303400000000000000000000000000000000000000000000000000000000815260040160405180910390fd5b600060056000838152602001908152602001600020600601805490501115610b44576040517f1f7167c100000000000000000000000000000000000000000000000000000000815260040160405180910390fd5b6000600660008381526020019081526020016000205414610b91576040517fd41614db00000000000000000000000000000000000000000000000000000000815260040160405180910390fd5b60007f000000000000000000000000000000000000000000000000000000000000000073ffffffffffffffffffffffffffffffffffffffff16635d3b1d307f00000000000000000000000000000000000000000000000000000000000000007f000000000000000000000000000000000000000000000000000000000000000060037f000000000000000000000000000000000000000000000000000000000000000060016040518663ffffffff1660e01b8152600401610c56959493929190612acd565b602060405180830381600087803b158015610c7057600080fd5b505af1158015610c84573d6000803e3d6000fd5b505050506040513d601f19601f82011682018060405250810190610ca89190612b35565b9050807fcd6e45c8998311cab7e9d4385596cac867e20a0587194b954fa3a731c93ce78b60405160405180910390a25050565b6000600361ffff16905090565b600060056000838152602001908152602001600020600501805490509050919050565b606060056000838152602001908152602001600020600601805480602002602001604051908101604052809291908181526020018280548015610da357602002820191906000526020600020905b8160009054906101000a900473ffffffffffffffffffffffffffffffffffffffff1673ffffffffffffffffffffffffffffffffffffffff1681526020019060010190808311610d59575b50505050509050919050565b610db7611ff9565b60056000838152602001908152602001600020604051806101200160405290816000820160009054906101000a900460ff161515151581526020016000820160019054906101000a900473ffffffffffffffffffffffffffffffffffffffff1673ffffffffffffffffffffffffffffffffffffffff1673ffffffffffffffffffffffffffffffffffffffff1681526020016000820160159054906101000a900460ff166001811115610e6c57610e6b6124b0565b5b6001811115610e7e57610e7d6124b0565b5b8152602001600182015481526020016002820154815260200160038201805480602002602001604051908101604052809291908181526020018280548015610ee557602002820191906000526020600020905b815481526020019060010190808311610ed1575b5050505050815260200160048201805480602002602001604051908101604052809291908181526020018280548015610f3d57602002820191906000526020600020905b815481526020019060010190808311610f29575b5050505050815260200160058201805480602002602001604051908101604052809291908181526020018280548015610fcb57602002820191906000526020600020905b8160009054906101000a900473ffffffffffffffffffffffffffffffffffffffff1673ffffffffffffffffffffffffffffffffffffffff1681526020019060010190808311610f81575b505050505081526020016006820180548060200260200160405190810160405280929190818152602001828054801561105957602002820191906000526020600020905b8160009054906101000a900473ffffffffffffffffffffffffffffffffffffffff1673ffffffffffffffffffffffffffffffffffffffff168152602001906001019080831161100f575b5050505050815250509050919050565b7f000000000000000000000000000000000000000000000000000000000000000073ffffffffffffffffffffffffffffffffffffffff163373ffffffffffffffffffffffffffffffffffffffff16146110c157600080fd5b60006006600083815260200190815260200160002054141561110f576040517fe7b5e52000000000000000000000000000000000000000000000000000000000815260040160405180910390fd5b600115156005600083815260200190815260200160002060000160009054906101000a900460ff16151514611170576040517f718317b700000000000000000000000000000000000000000000000000000000815260040160405180910390fd5b600180811115611183576111826124b0565b5b6005600083815260200190815260200160002060000160159054906101000a900460ff1660018111156111b9576111b86124b0565b5b146111f0576040517f3066e5b200000000000000000000000000000000000000000000000000000000815260040160405180910390fd5b600560008281526020019081526020016000206005018054905060056000838152602001908152602001600020600201541115611259576040517f5a77e4b400000000000000000000000000000000000000000000000000000000815260040160405180910390fd5b60006005600083815260200190815260200160002060000160156101000a81548160ff02191690836001811115611293576112926124b0565b5b021790555060006006600083815260200190815260200160002054905060005b60056000848152602001908152602001600020600201548110156115a2576000600560008581526020019081526020016000206005018054905083428460405160200161130293929190612b62565b6040516020818303038152906040528051906020012060001c6113259190612bc8565b9050600060056000868152602001908152602001600020600501828154811061135157611350612bf9565b5b9060005260206000200160009054906101000a900473ffffffffffffffffffffffffffffffffffffffff16905060056000868152602001908152602001600020600601819080600181540180825580915050600190039060005260206000200160009091909190916101000a81548173ffffffffffffffffffffffffffffffffffffffff021916908373ffffffffffffffffffffffffffffffffffffffff16021790555060056000868152602001908152602001600020600501828154811061141d5761141c612bf9565b5b9060005260206000200160006101000a81549073ffffffffffffffffffffffffffffffffffffffff021916905560056000868152602001908152602001600020600501600160056000888152602001908152602001600020600501805490506114869190612c57565b8154811061149757611496612bf9565b5b9060005260206000200160009054906101000a900473ffffffffffffffffffffffffffffffffffffffff166005600087815260200190815260200160002060050183815481106114ea576114e9612bf9565b5b9060005260206000200160006101000a81548173ffffffffffffffffffffffffffffffffffffffff021916908373ffffffffffffffffffffffffffffffffffffffff1602179055506005600086815260200190815260200160002060050180548061155857611557612c8b565b5b6001900381819060005260206000200160006101000a81549073ffffffffffffffffffffffffffffffffffffffff021916905590555050808061159a90612cba565b9150506112b3565b5060005b60056000848152602001908152602001600020600601805490508110156117025760006005600085815260200190815260200160002060060182815481106115f1576115f0612bf9565b5b9060005260206000200160009054906101000a900473ffffffffffffffffffffffffffffffffffffffff1673ffffffffffffffffffffffffffffffffffffffff1660056000868152602001908152602001600020600401838154811061165a57611659612bf9565b5b906000526020600020015460405161167190612a40565b60006040518083038185875af1925050503d80600081146116ae576040519150601f19603f3d011682016040523d82523d6000602084013e6116b3565b606091505b50509050806116ee576040517f1c94012000000000000000000000000000000000000000000000000000000000815260040160405180910390fd5b5080806116fa90612cba565b9150506115a6565b505050565b6000600454905090565b60606005600083815260200190815260200160002060030180548060200260200160405190810160405280929190818152602001828054801561177357602002820191906000526020600020905b81548152602001906001019080831161175f575b50505050509050919050565b7f000000000000000000000000000000000000000000000000000000000000000073ffffffffffffffffffffffffffffffffffffffff163373ffffffffffffffffffffffffffffffffffffffff16146117d757600080fd5b81815114611811576040517f5b78303400000000000000000000000000000000000000000000000000000000815260040160405180910390fd5b6000341161184b576040517f5259a34700000000000000000000000000000000000000000000000000000000815260040160405180910390fd5b600080600090505b82518110156118975782818151811061186f5761186e612bf9565b5b6020026020010151826118829190612d03565b9150808061188f90612cba565b915050611853565b50606481146118d2576040517f038890bc00000000000000000000000000000000000000000000000000000000815260040160405180910390fd5b6001600460008282546118e59190612d03565b925050819055506001151560056000600454815260200190815260200160002060000160009054906101000a900460ff1615151415611950576040517f4fa39e5500000000000000000000000000000000000000000000000000000000815260040160405180910390fd5b600160056000600454815260200190815260200160002060000160006101000a81548160ff0219169083151502179055508360056000600454815260200190815260200160002060000160016101000a81548173ffffffffffffffffffffffffffffffffffffffff021916908373ffffffffffffffffffffffffffffffffffffffff160217905550600160056000600454815260200190815260200160002060000160156101000a81548160ff02191690836001811115611a1457611a136124b0565b5b021790555034600560006004548152602001908152602001600020600101819055508260056000600454815260200190815260200160002060020181905550816005600060045481526020019081526020016000206003019080519060200190611a7f92919061206f565b5060005b60056000600454815260200190815260200160002060020154811015611b465760006005600060045481526020019081526020016000206003018281548110611acf57611ace612bf9565b5b9060005260206000200154606434611ae79190612d59565b611af19190612d8a565b9050600560006004548152602001908152602001600020600401819080600181540180825580915050600190039060005260206000200160009091909190915055508080611b3e90612cba565b915050611a83565b5050505050565b600060066000838152602001908152602001600020549050919050565b606060056000838152602001908152602001600020600501805480602002602001604051908101604052809291908181526020018280548015611c0257602002820191906000526020600020905b8160009054906101000a900473ffffffffffffffffffffffffffffffffffffffff1673ffffffffffffffffffffffffffffffffffffffff1681526020019060010190808311611bb8575b50505050509050919050565b606060056000838152602001908152602001600020600401805480602002602001604051908101604052809291908181526020018280548015611c7057602002820191906000526020600020905b815481526020019060010190808311611c5c575b50505050509050919050565b60006005600083815260200190815260200160002060000160159054906101000a900460ff169050919050565b60007f000000000000000000000000000000000000000000000000000000000000000067ffffffffffffffff16905090565b7f000000000000000000000000000000000000000000000000000000000000000073ffffffffffffffffffffffffffffffffffffffff163373ffffffffffffffffffffffffffffffffffffffff1614611d3357600080fd5b600180811115611d4657611d456124b0565b5b6005600084815260200190815260200160002060000160159054906101000a900460ff166001811115611d7c57611d7b6124b0565b5b14611db3576040517f3066e5b200000000000000000000000000000000000000000000000000000000815260040160405180910390fd5b600115156005600084815260200190815260200160002060000160009054906101000a900460ff16151514611e14576040517f718317b700000000000000000000000000000000000000000000000000000000815260040160405180910390fd5b60005b8151811015611ec45760056000848152602001908152602001600020600501828281518110611e4957611e48612bf9565b5b60200260200101519080600181540180825580915050600190039060005260206000200160009091909190916101000a81548173ffffffffffffffffffffffffffffffffffffffff021916908373ffffffffffffffffffffffffffffffffffffffff1602179055508080611ebc90612cba565b915050611e17565b50817fdc3757e0609f49cc46513322610aab2a5676a8d1223e0976c3579ec9254156e082604051611ef5919061247f565b60405180910390a25050565b611f09611f9f565b80600081518110611f1d57611f1c612bf9565b5b6020026020010151600660006004548152602001908152602001600020819055506004547ff1a33a0a7bfbc4a4535b57eda51fff676812a23cffd98524134bc343749fe2ee82600081518110611f7657611f75612bf9565b5b6020026020010151604051611f8b919061215f565b60405180910390a2611f9b611fef565b5050565b60026000541415611fe5576040517f08c379a0000000000000000000000000000000000000000000000000000000008152600401611fdc90612e41565b60405180910390fd5b6002600081905550565b6001600081905550565b604051806101200160405280600015158152602001600073ffffffffffffffffffffffffffffffffffffffff1681526020016000600181111561203f5761203e6124b0565b5b81526020016000815260200160008152602001606081526020016060815260200160608152602001606081525090565b8280548282559060005260206000209081019282156120ab579160200282015b828111156120aa57825182559160200191906001019061208f565b5b5090506120b891906120bc565b5090565b5b808211156120d55760008160009055506001016120bd565b5090565b6000604051905090565b600080fd5b600080fd5b6000819050919050565b612100816120ed565b811461210b57600080fd5b50565b60008135905061211d816120f7565b92915050565b600060208284031215612139576121386120e3565b5b60006121478482850161210e565b91505092915050565b612159816120ed565b82525050565b60006020820190506121746000830184612150565b92915050565b600080fd5b6000601f19601f8301169050919050565b7f4e487b7100000000000000000000000000000000000000000000000000000000600052604160045260246000fd5b6121c88261217f565b810181811067ffffffffffffffff821117156121e7576121e6612190565b5b80604052505050565b60006121fa6120d9565b905061220682826121bf565b919050565b600067ffffffffffffffff82111561222657612225612190565b5b602082029050602081019050919050565b600080fd5b600061224f61224a8461220b565b6121f0565b9050808382526020820190506020840283018581111561227257612271612237565b5b835b8181101561229b5780612287888261210e565b845260208401935050602081019050612274565b5050509392505050565b600082601f8301126122ba576122b961217a565b5b81356122ca84826020860161223c565b91505092915050565b600080604083850312156122ea576122e96120e3565b5b60006122f88582860161210e565b925050602083013567ffffffffffffffff811115612319576123186120e8565b5b612325858286016122a5565b9150509250929050565b600073ffffffffffffffffffffffffffffffffffffffff82169050919050565b600061235a8261232f565b9050919050565b61236a8161234f565b82525050565b60006020820190506123856000830184612361565b92915050565b60008115159050919050565b6123a08161238b565b82525050565b60006020820190506123bb6000830184612397565b92915050565b600081519050919050565b600082825260208201905092915050565b6000819050602082019050919050565b6123f68161234f565b82525050565b600061240883836123ed565b60208301905092915050565b6000602082019050919050565b600061242c826123c1565b61243681856123cc565b9350612441836123dd565b8060005b8381101561247257815161245988826123fc565b975061246483612414565b925050600181019050612445565b5085935050505092915050565b600060208201905081810360008301526124998184612421565b905092915050565b6124aa8161238b565b82525050565b7f4e487b7100000000000000000000000000000000000000000000000000000000600052602160045260246000fd5b600281106124f0576124ef6124b0565b5b50565b6000819050612501826124df565b919050565b6000612511826124f3565b9050919050565b61252181612506565b82525050565b612530816120ed565b82525050565b600081519050919050565b600082825260208201905092915050565b6000819050602082019050919050565b600061256e8383612527565b60208301905092915050565b6000602082019050919050565b600061259282612536565b61259c8185612541565b93506125a783612552565b8060005b838110156125d85781516125bf8882612562565b97506125ca8361257a565b9250506001810190506125ab565b5085935050505092915050565b600082825260208201905092915050565b6000612601826123c1565b61260b81856125e5565b9350612616836123dd565b8060005b8381101561264757815161262e88826123fc565b975061263983612414565b92505060018101905061261a565b5085935050505092915050565b60006101208301600083015161266d60008601826124a1565b50602083015161268060208601826123ed565b5060408301516126936040860182612518565b5060608301516126a66060860182612527565b5060808301516126b96080860182612527565b5060a083015184820360a08601526126d18282612587565b91505060c083015184820360c08601526126eb8282612587565b91505060e083015184820360e086015261270582826125f6565b91505061010083015184820361010086015261272182826125f6565b9150508091505092915050565b600060208201905081810360008301526127488184612654565b905092915050565b600082825260208201905092915050565b600061276c82612536565b6127768185612750565b935061278183612552565b8060005b838110156127b25781516127998882612562565b97506127a48361257a565b925050600181019050612785565b5085935050505092915050565b600060208201905081810360008301526127d98184612761565b905092915050565b6127ea8161234f565b81146127f557600080fd5b50565b600081359050612807816127e1565b92915050565b600080600060608486031215612826576128256120e3565b5b6000612834868287016127f8565b93505060206128458682870161210e565b925050604084013567ffffffffffffffff811115612866576128656120e8565b5b612872868287016122a5565b9150509250925092565b61288581612506565b82525050565b60006020820190506128a0600083018461287c565b92915050565b600067ffffffffffffffff8211156128c1576128c0612190565b5b602082029050602081019050919050565b60006128e56128e0846128a6565b6121f0565b9050808382526020820190506020840283018581111561290857612907612237565b5b835b81811015612931578061291d88826127f8565b84526020840193505060208101905061290a565b5050509392505050565b600082601f8301126129505761294f61217a565b5b81356129608482602086016128d2565b91505092915050565b600080604083850312156129805761297f6120e3565b5b600061298e8582860161210e565b925050602083013567ffffffffffffffff8111156129af576129ae6120e8565b5b6129bb8582860161293b565b9150509250929050565b60006129d08261232f565b9050919050565b6129e0816129c5565b82525050565b60006040820190506129fb60008301856129d7565b612a0860208301846129d7565b9392505050565b600081905092915050565b50565b6000612a2a600083612a0f565b9150612a3582612a1a565b600082019050919050565b6000612a4b82612a1d565b9150819050919050565b6000819050919050565b612a6881612a55565b82525050565b600067ffffffffffffffff82169050919050565b612a8b81612a6e565b82525050565b600061ffff82169050919050565b612aa881612a91565b82525050565b600063ffffffff82169050919050565b612ac781612aae565b82525050565b600060a082019050612ae26000830188612a5f565b612aef6020830187612a82565b612afc6040830186612a9f565b612b096060830185612abe565b612b166080830184612abe565b9695505050505050565b600081519050612b2f816120f7565b92915050565b600060208284031215612b4b57612b4a6120e3565b5b6000612b5984828501612b20565b91505092915050565b6000606082019050612b776000830186612150565b612b846020830185612150565b612b916040830184612150565b949350505050565b7f4e487b7100000000000000000000000000000000000000000000000000000000600052601260045260246000fd5b6000612bd3826120ed565b9150612bde836120ed565b925082612bee57612bed612b99565b5b828206905092915050565b7f4e487b7100000000000000000000000000000000000000000000000000000000600052603260045260246000fd5b7f4e487b7100000000000000000000000000000000000000000000000000000000600052601160045260246000fd5b6000612c62826120ed565b9150612c6d836120ed565b925082821015612c8057612c7f612c28565b5b828203905092915050565b7f4e487b7100000000000000000000000000000000000000000000000000000000600052603160045260246000fd5b6000612cc5826120ed565b91507fffffffffffffffffffffffffffffffffffffffffffffffffffffffffffffffff821415612cf857612cf7612c28565b5b600182019050919050565b6000612d0e826120ed565b9150612d19836120ed565b9250827fffffffffffffffffffffffffffffffffffffffffffffffffffffffffffffffff03821115612d4e57612d4d612c28565b5b828201905092915050565b6000612d64826120ed565b9150612d6f836120ed565b925082612d7f57612d7e612b99565b5b828204905092915050565b6000612d95826120ed565b9150612da0836120ed565b9250817fffffffffffffffffffffffffffffffffffffffffffffffffffffffffffffffff0483118215151615612dd957612dd8612c28565b5b828202905092915050565b600082825260208201905092915050565b7f5265656e7472616e637947756172643a207265656e7472616e742063616c6c00600082015250565b6000612e2b601f83612de4565b9150612e3682612df5565b602082019050919050565b60006020820190508181036000830152612e5a81612e1e565b905091905056fea2646970667358221220a747d79b00ecdd1880f5c9200ae2a58bdbe4c40428c95cc2f76cf24708ddd56264736f6c63430008090033",
  "devdoc": {
    "author": "VAIOT team",
    "details": "Functions should be called in the order: openLottery -> addLotteryParticipants -> pickRandomNumberForLottery -> payOutWinners (open the lottery, add participants, pick random number for the lottery and pay the winners) The function emergencyCashback is for paying back the author of the giveaway in case the lottery gets stuck (for example because there were not enough players).",
    "kind": "dev",
    "methods": {
      "addLotteryParticipants(uint256,address[])": {
        "params": {
          "_addresses": "- array containing addresses of the lottery participants",
          "_lotteryId": "- id of the lottery (the first lottery has index 1)"
        }
      },
      "emergencyCashback(uint256)": {
        "params": {
          "_lotteryId": "- id of the lottery"
        }
      },
      "openLottery(address,uint256,uint256[])": {
        "params": {
          "_author": "- author of the giveaway",
          "_numOfWinners": "- number of winners of the lottery",
          "_rewardProportions": "- what % of the reward goes to what winner. Example: if there are 5 participants and everyone gets equal rewards the input would be [20,20,20,20,20] Keep in mind the proportions have to sum up to 100 and the length of the array has to match the number of winners"
        }
      },
      "payoutWinners(uint256)": {
        "params": {
          "_lotteryId": "- id of the lottery"
        }
      },
      "pickRandomNumberForLottery(uint256)": {
        "params": {
          "_lotteryId": "- id of the lottery"
        }
      }
    },
    "title": "Lottery that automatically picks winners and pays them in the native token",
    "version": 1
  },
  "userdoc": {
    "kind": "user",
    "methods": {
      "addLotteryParticipants(uint256,address[])": {
        "notice": "Function that adds participants of the lottery"
      },
      "emergencyCashback(uint256)": {
        "notice": "Function that is only called when an emergency cashback is required (for example funds are stuck) Keep in mind that the money gets returned to the author of the giveaway"
      },
      "openLottery(address,uint256,uint256[])": {
        "notice": "Open the lottery"
      },
      "payoutWinners(uint256)": {
        "notice": "Function that pays the winners of the lotteryCall it only when openLottery and addParticipants have been previously called"
      },
      "pickRandomNumberForLottery(uint256)": {
        "notice": "Call Chainlink VRF to get a random number"
      }
    },
    "notice": "This contract supports multiple lotteries running at once",
    "version": 1
  },
  "storageLayout": {
    "storage": [
      {
        "astId": 183,
        "contract": "contracts/Raffle.sol:Raffle",
        "label": "_status",
        "offset": 0,
        "slot": "0",
        "type": "t_uint256"
      },
      {
        "astId": 269,
        "contract": "contracts/Raffle.sol:Raffle",
        "label": "participants",
        "offset": 0,
        "slot": "1",
        "type": "t_array(t_address_payable)dyn_storage"
      },
      {
        "astId": 273,
        "contract": "contracts/Raffle.sol:Raffle",
        "label": "s_winner",
        "offset": 0,
        "slot": "2",
        "type": "t_address"
      },
      {
        "astId": 275,
        "contract": "contracts/Raffle.sol:Raffle",
        "label": "lotteryStake",
        "offset": 0,
        "slot": "3",
        "type": "t_uint256"
      },
      {
        "astId": 277,
        "contract": "contracts/Raffle.sol:Raffle",
        "label": "lotteryId",
        "offset": 0,
        "slot": "4",
        "type": "t_uint256"
      },
      {
        "astId": 324,
        "contract": "contracts/Raffle.sol:Raffle",
        "label": "idToLottery",
        "offset": 0,
        "slot": "5",
        "type": "t_mapping(t_uint256,t_struct(Lottery)319_storage)"
      },
      {
        "astId": 328,
        "contract": "contracts/Raffle.sol:Raffle",
        "label": "idToRandomNumber",
        "offset": 0,
        "slot": "6",
        "type": "t_mapping(t_uint256,t_uint256)"
      }
    ],
    "types": {
      "t_address": {
        "encoding": "inplace",
        "label": "address",
        "numberOfBytes": "20"
      },
      "t_address_payable": {
        "encoding": "inplace",
        "label": "address payable",
        "numberOfBytes": "20"
      },
      "t_array(t_address_payable)dyn_storage": {
        "base": "t_address_payable",
        "encoding": "dynamic_array",
        "label": "address payable[]",
        "numberOfBytes": "32"
      },
      "t_array(t_uint256)dyn_storage": {
        "base": "t_uint256",
        "encoding": "dynamic_array",
        "label": "uint256[]",
        "numberOfBytes": "32"
      },
      "t_bool": {
        "encoding": "inplace",
        "label": "bool",
        "numberOfBytes": "1"
      },
      "t_enum(LotteryState)280": {
        "encoding": "inplace",
        "label": "enum Raffle.LotteryState",
        "numberOfBytes": "1"
      },
      "t_mapping(t_uint256,t_struct(Lottery)319_storage)": {
        "encoding": "mapping",
        "key": "t_uint256",
        "label": "mapping(uint256 => struct Raffle.Lottery)",
        "numberOfBytes": "32",
        "value": "t_struct(Lottery)319_storage"
      },
      "t_mapping(t_uint256,t_uint256)": {
        "encoding": "mapping",
        "key": "t_uint256",
        "label": "mapping(uint256 => uint256)",
        "numberOfBytes": "32",
        "value": "t_uint256"
      },
      "t_struct(Lottery)319_storage": {
        "encoding": "inplace",
        "label": "struct Raffle.Lottery",
        "members": [
          {
            "astId": 297,
            "contract": "contracts/Raffle.sol:Raffle",
            "label": "exists",
            "offset": 0,
            "slot": "0",
            "type": "t_bool"
          },
          {
            "astId": 299,
            "contract": "contracts/Raffle.sol:Raffle",
            "label": "author",
            "offset": 1,
            "slot": "0",
            "type": "t_address_payable"
          },
          {
            "astId": 302,
            "contract": "contracts/Raffle.sol:Raffle",
            "label": "status",
            "offset": 21,
            "slot": "0",
            "type": "t_enum(LotteryState)280"
          },
          {
            "astId": 304,
            "contract": "contracts/Raffle.sol:Raffle",
            "label": "reward",
            "offset": 0,
            "slot": "1",
            "type": "t_uint256"
          },
          {
            "astId": 306,
            "contract": "contracts/Raffle.sol:Raffle",
            "label": "numOfWinners",
            "offset": 0,
            "slot": "2",
            "type": "t_uint256"
          },
          {
            "astId": 309,
            "contract": "contracts/Raffle.sol:Raffle",
            "label": "rewardProportions",
            "offset": 0,
            "slot": "3",
            "type": "t_array(t_uint256)dyn_storage"
          },
          {
            "astId": 312,
            "contract": "contracts/Raffle.sol:Raffle",
            "label": "finalRewards",
            "offset": 0,
            "slot": "4",
            "type": "t_array(t_uint256)dyn_storage"
          },
          {
            "astId": 315,
            "contract": "contracts/Raffle.sol:Raffle",
            "label": "participants",
            "offset": 0,
            "slot": "5",
            "type": "t_array(t_address_payable)dyn_storage"
          },
          {
            "astId": 318,
            "contract": "contracts/Raffle.sol:Raffle",
            "label": "winners",
            "offset": 0,
            "slot": "6",
            "type": "t_array(t_address_payable)dyn_storage"
          }
        ],
        "numberOfBytes": "224"
      },
      "t_uint256": {
        "encoding": "inplace",
        "label": "uint256",
        "numberOfBytes": "32"
      }
    }
  }
}